:020000040800F2
:100000000020002069050008B5050008B5050008B6
:1000100000000000000000000000000000000000E0
:10002000000000000000000000000000B50500080E
:100030000000000000000000B5050008B50500083C
:10004000B5050008B5050008B5050008B5050008A8
:10005000B5050008B5050008B5050008B505000898
:10006000B5050008B5050008B5050008B505000888
:10007000B5050008B5050008B5050008B505000878
:10008000B5050008B505000800000000B50500082A
:10009000B5050008B5050008B5050008B505000858
:1000A000B5050008B5050008B5050008B505000848
:1000B000B505000800000000B505000800000000BC
:1000C0005FF808F180B582B000AF78600A1CFB1CB5
:1000D0001A70FB1C1B78002B06D0084B074A51698D
:1000E0007A680A435A6106E0044B044A5269796807
:1000F000C9430A405A61BD4602B080BD00100240AB
:1001000080B582B000AF78600A1CFB1C1A70FB1C23
:100110001B78002B06D0084B074A91697A680A437E
:100120009A6106E0044B044A92697968C9430A401F
:100130009A61BD4602B080BD0010024080B582B019
:1001400000AF8023DB02181C0121FFF7BBFF3B1C23
:100150000B4A1A603B1C01221A713B1C00229A7147
:100160003B1C0022DA713B1C00225A71054A3B1CE1
:10017000101C191C00F0DAFBBD4602B080BDC04661
:10018000070400000004004880B582B000AF80235F
:100190009B02181C0121FFF795FF80235B01181CAF
:1001A0000121FFF7ADFF3B1CA0221A603B1C02227D
:1001B0001A713B1C00229A713B1C0222DA713B1C13
:1001C00000225A719023DA053B1C101C191C00F008
:1001D000ADFBBD4602B080BD80B582B000AF8023CC
:1001E0009B02181C0121FFF76DFF3B1C01221A60C6
:1001F0003B1C00221A713B1C00229A713B1C0222FC
:10020000DA713B1C00225A719023DA053B1C101C4A
:10021000191C00F08BFBBD4602B080BD80B500AF5D
:10022000044B044A928A92B202210A4392B29A8201
:10023000BD4680BD0004004880B500AF044B044AB1
:10024000928A92B204210A4392B29A82BD4680BD3C
:100250000004004880B500AF044B044A928A92B271
:1002600004218A4392B29A82BD4680BD00040048B0
:1002700080B500AF054B054A928A92B28021C90031
:100280000A4392B29A82BD4680BDC046000400482F
:1002900080B500AF044B044A928A91B2034A0A40E7
:1002A00092B29A82BD4680BD00040048FFFBFFFF6A
:1002B00080B500AF044B044A928A92B201218A436E
:1002C00092B29A82BD4680BD0004004880B586B0D7
:1002D00000AF3B1D00229A813B1D00221A813B1D6D
:1002E0000222DA803B1D802292005A813B1DE022CF
:1002F000D2009A803B1D822252005A803B1D002270
:10030000DA813B1D0B4A1A800B4A3B1D101C191C3D
:1003100000F052F9084B181C012100F0CFF9064AF1
:1003200080235B00101C191C00F0E8F9BD4606B0E4
:1003300080BDC04600C0FFFF0030014080B582B0E4
:1003400000AF021CFB1D1A70094AFB1D1B78101C14
:10035000191C00F0F9F9C046054B181C022100F0E9
:1003600009FA031C002BF7D0BD4602B080BDC04681
:100370000030014080B500AFFFF79AFFFFF788FF1C
:10038000FFF74CFFFFF766FFFFF756FF2120FFF74F
:10039000D5FF0920FFF7D2FFFF20FFF7CFFF062090
:1003A000FFF7CCFF1320FFF7C9FF2020FFF7C6FFA0
:1003B0000C20FFF7C3FFBD4680BDC04680B584B0AA
:1003C00000AF3B1C0F3300221A703B1C0E3301227E
:1003D0001A70FFF701FFFFF7B1FEFFF7D5FEFFF739
:1003E00075FFFFF7C7FF00E0C0469023DB05181C30
:1003F000012100F037FB031C012B1FD10023BB6040
:100400000023BB6002E0BB680133BB60BA68514B9C
:100410009A42F8D93B1C0F333A1C0F321278013242
:100420001A703B1C0E3301221A703B1C0F331B78D1
:10043000042B03D13B1C0F3301221A703B1C0F33DA
:100440001B78012B09D002DC002B05D0CDE7022B55
:100450002CD0032B53D0C8E77BE03B1C0E331B781A
:10046000012B22D1FFF714FF8020FFF767FF402008
:10047000FFF764FFFFF7FCFEBB1D00221A800BE0B4
:10048000BB1D1B88344AD35C181CFFF757FFBB1DEC
:10049000BA1D128801321A80BB1D1A882F4B9A424E
:1004A000EED93B1C0E3302221A7052E03B1C0E3375
:1004B0001B78012B22D1FFF7EBFE8020FFF73EFFD8
:1004C0004020FFF73BFFFFF7D3FEBB1D00221A8041
:1004D0000BE0BB1D1B88224AD35C181CFFF72EFFC4
:1004E000BB1DBA1D128801321A80BB1D1A881B4B16
:1004F0009A42EED93B1C0E3302221A7029E03B1CB3
:100500000E331B78012B00D06EE7FFF7C1FE802071
:10051000FFF714FF4020FFF711FFFFF7A9FEBB1DF7
:1005200000221A800BE0BB1D1B880E4AD35C181CEE
:10053000FFF704FFBB1DBA1D128801321A80BB1DD4
:100540001A88064B9A42EED93B1C0E3302221A70CF
:100550004BE74AE7BF0F0D00000000202F0300000B
:1005600030030020600600200C488546002103E08F
:100570000B4B5B58435004310A480B4B42189A42CC
:10058000F6D30A4A02E0002313600432084B9A4271
:10059000F9D300F013F9FFF711FFFEE70020002068
:1005A000AC0A0008000000209C0900209C090020E3
:1005B0009C090020FEE7000080B584B000AF7860A1
:1005C00039603B1C0E3300221A803B1C0E337A68C4
:1005D00012881A803B1C0E333A1C0E321188C1223D
:1005E00092010A401A803B681A883B68DB891343F2
:1005F0009AB23B68DB8813439AB23B681B8913436A
:100600009AB23B685B8913439AB23B689B89134358
:1006100099B23B1C0E333A1C0E3212880A431A80E0
:100620007B683A1C0E3212881A803B1C0E337A68A3
:1006300092881A803B1C0E333A1C0E3211881D4AD8
:100640000A401A803B6899883B1C0E333A1C0E32D4
:1006500012880A431A807B683A1C0E3212889A80EC
:100660003B681A8A7B681A823B1C0E337A681288B0
:100670001A803B1C0E333A1C0E32128804218A4326
:100680001A803B6859883B1C0E333A1C0E32128884
:100690000A431A807B683A1C0E3212881A807B68E3
:1006A0009B8B9AB2044B13409AB27B689A83BD46E7
:1006B00004B080BDFFF0FFFFFFF7FFFF80B582B001
:1006C00000AF78600A1CFB1C1A70FB1C1B78002B07
:1006D00008D07B681B889BB2402213439AB27B6888
:1006E0001A8007E07B681B889BB2402293439AB232
:1006F0007B681A80BD4602B080BDC04680B582B01E
:1007000000AF78600A1CBB1C1A80BB1C1A880C4BFB
:100710009A4209D07B681B889BB280225200134307
:100720009AB27B681A8007E07B681B889AB2054BF7
:1007300013409AB27B681A80BD4602B080BDC046A5
:10074000FFFE0000FFFEFFFF80B584B000AF7860C1
:100750000A1CFB1C1A700023FB607B68FB60FB68B3
:100760000C33FB60FB68FA1C12781A70BD4604B0AB
:1007700080BDC04680B584B000AF78600A1CBB1C49
:100780001A803B1C0F3300221A707B681B899BB2B6
:10079000BA1C128813409BB2002B04D03B1C0F33B1
:1007A00001221A7003E03B1C0F3300221A703B1C1D
:1007B0000F331B78181CBD4604B080BD80B500AF58
:1007C0001B4B1B4A126801210A431A60184B184A36
:1007D0005168184A0A405A60154B154A1168164A62
:1007E0000A401A60124B124A1168144A0A401A60F1
:1007F0000F4B0F4A5168124A0A405A600C4B0C4A80
:10080000D26A0F218A43DA62094B094A116B0D4AF9
:100810000A401A63064B064A526B01218A435A6307
:10082000034B00229A6000F00FF8BD4680BDC04621
:10083000001002400CB8FFF8FFFFF6FEFFFFFBFFC1
:10084000FFFFC0FFACFEFFFF80B582B000AF00230A
:100850007B6000233B60324B314A126880214902A1
:100860000A431A602E4B1A6880239B0213403B6098
:100870007B6801337B603B68002B04D17A68A0233E
:10088000DB019A42EED1264B1A6880239B0213406B
:10089000002B02D001233B6001E000233B603B685A
:1008A000012B39D11F4B11221A601D4B1C4A526873
:1008B0005A601B4B1A4A52685A60194B184A5168C1
:1008C000194A0A405A60164B154A52688821490352
:1008D0000A435A60124B124A1268802149040A43A3
:1008E0001A60C0460E4B1A6880239B041340002BED
:1008F000F8D00B4B0A4A526803218A435A60084BCE
:10090000074A526802210A435A60C046044B5A689B
:100910000C231340082BF9D1BD4602B080BDC04660
:100920000010024000200240FFFFC0FF80B586B0EB
:1009300000AF7860396000237B6100233B610023B6
:10094000FB6000237B6185E07B690122101C9840DD
:10095000031C3B613B681B683A691340FB60FA6803
:100960003B699A4273D13B681B79012B03D03B68EA
:100970001B79022B38D17B689B687A69520003216E
:10098000081C9040021CD2431A407B689A607B6826
:100990009A683B685B79191C7B695B00081C98406E
:1009A000031C1A437B689A607B689B889BB27A69B8
:1009B00092B20121081C9040021C92B2D24392B222
:1009C00013409AB27B689A807B689B889AB23B6896
:1009D0009B79191C7B699BB2081C9840031C9BB235
:1009E00013439AB27B689A807B681B687A695200CD
:1009F0000321081C9040021CD2431A407B681A60F5
:100A00007B681A683B681B79191C7B695B00081CB2
:100A10009840031C1A437B681A607B68DB687A691C
:100A200092B252000321081C9040021CD2431A408B
:100A30007B68DA607B68DA683B68DB79191C7B6964
:100A40005B00081C9840031C1A437B68DA607B69D2
:100A500001337B617B690F2B00D875E7BD4606B07B
:100A600080BDC04680B584B000AF78600A1CBB1C56
:100A70001A803B1C0F3300221A707B681B8A9BB2C2
:100A8000BA1C128813409BB2002B04D03B1C0F33BE
:100A900001221A7003E03B1C0F3300221A703B1C2A
:0C0AA0000F331B78181CBD4604B080BD4D
:100AAC00FFFFFFFFFFFFFFFFFFFFFFFFFFFFFFFF4A
:100ABC00FFFFFFFFFFFFFFFFFFFFFFFFFFFFFFFF3A
:100ACC00FFFFFFFFFFFFFF7F7F7F7F7F7F7FFFFFAA
:100ADC00FFFFFFFFFFFFFFFFFFFFFFFFFFFFFFFF1A
:100AEC00FFFFFFFFFFFFFFFFFFFFFFFFFFFFFFFF0A
:100AFC00FFFFFFFFFFFFFFFFFFFFFFFFFF000000F7
:100B0C00000000000000FFFFFFFFFFFFFFFFFFFFE3
:100B1C00FFFFFFFFFFFFFFFFFFFFFFFFFFFFFFFFD9
:100B2C00FFFFFFFFFFFFFFFF9F070100000000001A
:100B3C0000000000000001010307071F3F7FFFFFBB
:100B4C00FFFFFFFFFFFFFFFFFFFFFFFFFFFFFFFFA9
:100B5C00FFFFFFFFFFFFFFFFFFFFFFFFFFFFFFFF99
:100B6C00FFFFFF000000000000000000FFFFFFFF80
:100B7C00FFFFFFFFFFFFFFFFFFFFFFFFFFFFFFFF79
:100B8C00FFFFFFFFFFFFFFFFFFFFFFFFFFFFFF1850
:100B9C006068787C7C38381000000000181C3C3CE5
:100BAC003C3E3E3E3FFFFFFFFFFFFFFFFFFFFFFF0F
:100BBC00FFFFFFFFFFFFFFFFFFFFFFFFFFFFFFFF39
:100BCC00FFFFFFFFFFFFFFFFFF0000000000000022
:100BDC000000FFFFFFFFFFFFFFFFFFFFFFFFFFFF17
:100BEC00FFFFFFFFFFFFFFFFFFFFFFFFFFFFFFFF09
:100BFC00FFFFFFFFFFE0800000000000000020204E
:100C0C0000601000000000000080F8FFFFFFFFFFF5
:100C1C00FFFFFFFFFFFFFFFFFFFFFFFFFFFFFFFFD8
:100C2C00FFFFFFFFFFFFFFFFFFFFFFFFFFFFFF00C7
:100C3C000000000000000000FFFFFFFFFFFFFFFFB0
:100C4C00FFFFFFFFFFFFFFFFFFFFFFFFFFFFFFFFA8
:100C5C00FFFFFFFFFFFFFFFFFFFFFFFFFFFCF0E0C9
:100C6C00C0C0000414041612081E80E0F0F8FEFF49
:100C7C00FFFFFFFFFFFFFFFFFFFFFFFFFFFFFFFF78
:100C8C00FFFFFFFFFFFFFFFFFFFFFFFFFFFFFFFF68
:100C9C00FFFFFFFFFF000000000000000000FFFF4F
:100CAC00FFFFFFFFFFFFFFFFFFFFFFFFFFFFFFFF48
:100CBC00FFFFFF7F7F3F3F3FBF7F7F7FFFFFFFFF38
:100CCC00FFFFFFFF01000001010103020303A7F76F
:100CDC00FFFFFFFFFFFFFFFFFFFFFFFFFFFFFFFF18
:100CEC00FFFFFFFFFFFFFFFFFFFFFFFFFFFFFFFF08
:100CFC00FFFFFFFFFFFFFFFFFFFFFF0000000000F3
:100D0C0000000000FFFFFFFFFFFFFFFFFFFFFFFFE3
:100D1C00FFFFFF1F0F0301000000003A80000100DD
:100D2C0000000001177F23070F7FF4000000000074
:100D3C0000000000E0FFFFFFFFFFFFFFFFFFFFFFD2
:100D4C00FFFFFFFFFFFFFFFFFFFF9F636FBFFFFF73
:100D5C00FFFFFFFFFFFFFFFFFFFFFFFFFFFFFFFF97
:100D6C00FF000000000000000000FFFFFFFFFFFF7E
:100D7C00FFFFFFFFFFFF5F07010000000000008086
:100D8C0080408A0080E89000000001000000000014
:100D9C0000010000000000000000FFFFFF7FFFFFCC
:100DAC00FFFFFFFFFFFFFFFFFFFFFFFFFFFFFFBF87
:100DBC0023390A19152F7FFFFFFFFFFFFFFFFFFFEE
:100DCC00FFFFFFFFFFFFFF0000000000000000001E
:100DDC000000000000000000000000000000000007
:100DEC0000000000000000000000000000000000F7
:100DFC0000000000000080F8FAFFFFFFFF1F010059
:100E0C000040C080C0DCD8F8F8F0F0100000000002
:100E1C00C0C0E0C0E0E0E0F9FFFFFFFFFFFFFFFF15
:100E2C00FFFFFFF8000000000000000000000000C1
:100E3C0000000000000000000000000000000000A6
:100E4C000000000000000000000000000000000096
:100E5C00000000000000000000000000FDFFFFFF8C
:100E6C00FFFF550000000000000101030103030116
:100E7C00000000000001070F0F1F3F3F7FFFFFFF27
:100E8C00FFFFFFFFFFFFFFFFFFFFFB000000000065
:100E9C000000000000000000000000000000000046
:100EAC000000000000000000000000000000000036
:100EBC000000000000000000000000000000000026
:100ECC0080FEFFFFFFFFFFFFFA8000000000000024
:100EDC00004000C0C0808080848400000000C0E01E
:100EEC00F8FEFFFFFFFFFFFFFFFFFFFFFFFFFFFF0E
:100EFC00FFEA0000000000000000000000000000FD
:100F0C0000000000000000000000000000000000D5
:100F1C0000000000000000000000000000000000C5
:100F2C00000000000000FFFFFFFFFFFFFFFFFF7F3F
:100F3C001F000000000000000004868685C4C5ED7B
:100F4C00FBFFFEFFFFFFFFFFFFFFFFFFFFFFFFFFAA
:100F5C00FFFFFFFFFFFF3F5B2000000000000000D1
:100F6C000000000000000000000000000000000075
:100F7C000000000000000000000000000080C0C065
:100F8C00C0E0E0E0E0E0F0F0F0F8F8FEFFFFFFFF7B
:100F9C00FFBF8F8301000000000000000000000074
:100FAC000101030101073F7F7FFFFFFFFFFFFFFFF1
:100FBC00FFFFFFFFFFFFFFFFFFFFFFFFFD4A80006A
:100FCC000000000000000000000000000000000015
:100FDC00000000000000000000000000C0E0F8FE6F
:100FEC00FE03077FFFFFBF3F3F9FCFE7E7F7FFFF02
:100FFC00FFFFFFFFFFFFFF3F1F0F07010000000077
:10100C000000000000000000000000B8B8900000D4
:10101C00FFFFFFFFFFFFFFFFFFC7C7E77F7F3F1FFC
:10102C0007070F0E18302020C00000000000000041
:10103C0000000000000000000000000000000000A4
:10104C00D81F1FFFFFFFFFFDF0FEFFFFFFFFFFFF9D
:10105C00FFFFFFFFFFFFFFFF7F3F0F0700000000B8
:10106C000000000070F8000000000000000000000C
:10107C00000101010000FFFFFFFFFFFFFFFFFFFF6B
:10108C00FFFFFCF0E00080800000E0F0F8E0C0F32F
:10109C00FEF8C0000000000000000000000000008E
:1010AC000000000000D0FFFFFCF0E3FFFFFFFFFF9C
:1010BC00FFFFFFFFFFFFFFFFFFFF1F0F01010000FE
:1010CC000000000000000000000000000000085CB0
:1010DC00C08080000000000000000000030103132A
:1010EC002F7DF33DBFFBFFFFFEFFFFFEFFFEFCFF6E
:1010FC00FFFFFFFFFFFFFFFFFFFF6000000000008E
:10110C0000000000000000000000000000000000D3
:10111C0000000000000000000000000000000000C3
:10112C0000000000000080F8FAFFFFFFFF1F010025
:10113C000040C080C0DCD8F8F8F0F01000000000CF
:10114C00C0C0E0C0E0E0E0F9FFFFFFFFFFFFFFFFE2
:10115C00FFFFFFF80000000000000000000000008E
:10116C000000000000000000000000000000000073
:10117C000000000000000000000000000000000063
:10118C00000000000000000000000000FDFFFFFF59
:10119C00FFFF5500000000000001010301030301E3
:1011AC00000000000001070F0F1F3F3F7FFFFFFFF4
:1011BC00FFFFFFFFFFFFFFFFFFFFFB000000000032
:1011CC000000000000000000000000000000000013
:1011DC000000000000000000000000000000000003
:1011EC0000000000000000000000000000000000F3
:1011FC0080FEFFFFFFFFFFFFFA80000000000000F1
:10120C00004000C0C0808080848400000000C0E0EA
:10121C00F8FEFFFFFFFFFFFFFFFFFFFFFFFFFFFFDA
:10122C00FFEA0000000000000000000000000000C9
:10123C0000000000000000000000000000000000A2
:10124C000000000000000000000000000000000092
:10125C00000000000000FFFFFFFFFFFFFFFFFF7F0C
:10126C001F000000000000000004868685C4C5ED48
:10127C00FBFFFEFFFFFFFFFFFFFFFFFFFFFFFFFF77
:10128C00FFFFFFFFFFFF3F5B20000000000000009E
:10129C000000000000000000000000000000000042
:1012AC000000000000000000000000000080C0C032
:1012BC00C0E0E0E0E0E0F0F0F0F8F8FEFFFFFFFF48
:1012CC00FFBF8F8301000000000000000000000041
:1012DC000101030101073F7F7FFFFFFFFFFFFFFFBE
:1012EC00FFFFFFFFFFFFFFFFFFFFFFFFFD4A800037
:1012FC0000000000000000000000000000000000E2
:10130C00000000000000000000000000C0E0F8FE3B
:10131C00FE03077FFFFFBF3F3F9FCFE7E7F7FFFFCE
:10132C00FFFFFFFFFFFFFF3F1F0F07010000000043
:10133C000000000000000000000000B8B8900000A1
:10134C00FFFFFFFFFFFFFFFFFFC7C7E77F7F3F1FC9
:10135C0007070F0E18302020C0000000000000000E
:10136C000000000000000000000000000000000071
:10137C00D81F1FFFFFFFFFFDF0FEFFFFFFFFFFFF6A
:10138C00FFFFFFFFFFFFFFFF7F3F0F070000000085
:10139C000000000070F800000000000000000000D9
:1013AC00000101010000FFFFFFFFFFFFFFFFFFFF38
:1013BC00FFFFFCF0E00080800000E0F0F8E0C0F3FC
:1013CC00FEF8C0000000000000000000000000005B
:1013DC000000000000D0FFFFFCF0E3FFFFFFFFFF69
:1013EC00FFFFFFFFFFFFFFFFFFFF1F0F01010000CB
:1013FC000000000000000000000000000000085C7D
:10140C00C0808000000000000000000003010313F6
:10141C002F7DF33DBFFBFFFFFEFFFFFEFFFEFCFF3A
:10142C00FFFFFFFFFFFFFFFFFFFF6000000000005A
:0C143C0031323334353637383930000097
:0400000508000000EF
:00000001FF
